:10000000FC7F00207D0500006D05000071050000EB
:1000100000000000000000000000000000000000E0
:100020000000000000000000000000007505000056
:1000300000000000000000007905000071080000C9
:1000400010B5064C2378002B07D1054B002B02D0AE
:10005000044800E000BF0123237010BDA800002069
:10006000000000003C23000008B5084B002B03D023
:100070000748084900E000BF07480368002B03D089
:10008000064B002B00D0984708BDC046000000007A
:100090003C230000AC000020A00000200000000075
:1000A000154A164B1178002909D115491878097895
:1000B0004118C9B21970802012494003C8611178F3
:1000C0000131C9B211701978F02902D819780929BB
:1000D00009D80B4908784042C0B2087018780978EE
:1000E0004118C9B2197012781B789A4203D1802244
:1000F000044B5203DA617047C40000200100002065
:10010000000000200044004170B50368041C988B77
:100110001A1C0821FF32084226D080209983987249
:10012000112353704021144B917150715E68134D2F
:10013000C0202E40800506435E605E69354028433E
:1001400058610F4818600F4818615D680E482840D4
:100150008025AD02284358605868800B80035860A2
:1001600000235171237105E0137ADA0602D5201CB1
:1001700000F0DAFC207970BD00020020FFFFFF8F45
:100180000001002080010020FF3F00F000230371E8
:100190004371044B016083600B78022213430B70A0
:1001A0007047C0460901000038B5364B2021DA6996
:1001B00001200A43DA61344B06241A7802431A708C
:1001C000324B0F2219789143197019782143197015
:1001D0002F490C782043087019780A401A701A7851
:1001E00060210A431A702B4B2B4A5A805A7852B21C
:1001F000002AFBDB294B01211A780A431A709A78EE
:10020000D107FCD426480268510B1F2211409142AD
:1002100000D1052111408C011D8D22492940214327
:1002200019850468A10C0A401F2A00D11D221C8DCB
:100230001F210A408C4322431A8502680721D20DF0
:100240000A408A4200D103220A40188D1103164A3F
:1002500002400A431A8519787F220A401A701A78D8
:10026000042112480A431A7058621A890C218A43E1
:100270001A811A8901218A431A810021802201F002
:10028000BDFE38BD00040040584400413C440041DC
:1002900059440041000C004006400000005000415D
:1002A000246080003FF8FFFFFF8FFFFF0002002067
:1002B000F7B5141C1F4A5F0101971D1CD319061CBA
:1002C0005869271C4000400F03301033C74006D048
:1002D0000F1C8022596812060A435A6009E02F1C3D
:1002E0007B1E9F41144BBF01FF18381C221C01F0DC
:1002F0007CFE01990F48083542181761131C52699A
:10030000A104920B890C92030A435A6159690B4A62
:100310000A405A616B01F3180222DA71597980227E
:1003200052420A435A716B01F318DB799A07FAD5E6
:10033000201CFEBD0002002080010020FF3F00F0D5
:10034000F8B51A4E051C3378141C002B12D1184B2B
:10035000184A1A645A6C920B92035A64586C164AE3
:1003600002405A64A2235B00EA5C40200243EA5444
:10037000012333704827FF37EA5D0123134012D071
:100380000B4B5A6C9204920CA24202D25C6CA404F5
:10039000A40C081C221C074901F027FE0123EB5581
:1003A0000023337000E01C1C201CF8BDC500002099
:1003B0000002002040010020FF3F00F0FF30837961
:1003C0002022002900D110221343837170470000BE
:1003D000084BFF305A69920B92035A610223037251
:1003E000827980235B4213438371037A9A07FCD599
:1003F0007047C0460002002080235B421943C9B207
:100400008172704770B5A02303225B00C254134B66
:10041000134A5C6CC021144089050C4346255C647A
:10042000FF35402444550F4D30261D6490256D0046
:1004300046555D6B15402943922559636D00802117
:100440004155094D1D63B0256D0044555C6F224038
:100450005A67B2235B00C15470BDC0460002002041
:10046000FFFFFF8F40010020C001002030B5364A59
:100470001E235168082099430223194351603349D0
:100480008A6902438A613248324A9082908A0343E1
:100490009382D3689807FCD52F4B012018701878E9
:1004A000C40704D52C48407840B20028F7DB01206F
:1004B0009860587840B20028FBDB284C26484460FE
:1004C000587840B20028FBDB82242348E4014480B2
:1004D000587840B20028FBDB908C8024A0439084A5
:1004E000D068C506FCD51E4C1A48C462D4681948A9
:1004F000E506FBD5848C1B4D2C438484D4681548B9
:10050000E506FBD5848C02252C438484D068040640
:10051000FCD51048C0684506F8D5D068C406FCD59F
:1005200000229A605A7852B2002AFBDB0E480A4A2F
:1005300050605A7852B2002AFBDB00230B724B72D8
:100540008B72CB7230BDC0460040004100040040B9
:100550000C06000000080040000C004001050100EE
:10056000B805FF7D040A0000000703000EBEFEE789
:100570000DBEFEE705BEFEE702BEFEE70E4A0F48CF
:1005800038B5824204D10E4A0E4B93420ED10AE096
:100590000D4C9442F7D00023D1188842F3D9E55886
:1005A00004330D60F8E700F053F804E09342FAD208
:1005B000002102C3FAE7FEE700000020A8000020A7
:1005C00030070020A800002040230000044A8023B8
:1005D000111C9B00983188320B6013607047C04635
:1005E00000440041024B80229200DA677047C04607
:1005F0000844004170B50E1C151C81188022041C93
:100600009201002091421CDC0120002D19D00D4BDD
:10061000802292001A60032001F0C6F9201C01F02C
:10062000D3F9341CA31B9BB2AB4205D2002001F0CE
:10063000BBF920700134F5E78022034B92001A6069
:10064000012070BD94440041984400410000000026
:10065000F7B5754B80221201DA67744B02221A70CB
:10066000734B744A19680123C90A1940724D1170FD
:100670002978724C194207D12A78DA401A4203D1FC
:100680002A7892081A4202D00023236005E02268EB
:100690006B4B9A4201D101F047FB6A4B186801305D
:1006A00004D1694B00221A70012220E0DBB2002B3A
:1006B000F7D12A78D10610D5206864495F4A88426C
:1006C00005D11360604A1370614B012210E0614B49
:1006D0001160013B002BFCD12360564A1378002B9C
:1006E00001D101F021FB584B01221A700022584B16
:1006F0001A70FFF7BBFE62B6554B00261A78B2425D
:1007000002D000F0DDF9061C534B802252039A60A0
:100710009A609A619A609A61504B514A514C5A6062
:10072000216AC0220902090A12060A432262002530
:1007300007229D601A6001F0C7FA3A4B384A8018C8
:1007400059410090019101274148474C0378002B03
:1007500006D0301CB1688847002801D001232370DF
:100760002378002B0AD0002D01D001F029FA0020B7
:1007700000F064FD344B187800F0FEFF002F05D028
:100780002C4A1378002B0FD001F0F2F9002D0ED176
:1007900028480378002B41D001F0EEF900283DD025
:1007A00001F0EEF90027051C002D27D000E00027FE
:1007B00001F07EFA2378051C002B0ED101F00CFA13
:1007C00002280AD1281C01F00DFA042000F036FDA1
:1007D0001D4B187800F0D0FF0FE0281C01F002FA42
:1007E000002D0ADA01F0ECF9BFF34F8F1F4B1D49C2
:1007F000CB60BFF34F8FC046FDE70125124B1B783E
:10080000002BA1D001F060FA019A914203D89BD14C
:10081000009B984298D901F073FA95E70027EDE71D
:10082000802005000000000008440041CB44004146
:10083000A0440041C700002038040040FC7F002095
:1008400069363163004000000200002035817307E3
:10085000C600002048E801000044004110E000E02C
:10086000E703000000ED00E0C80000200400FA05E6
:1008700010B5074C012200232068616812184B4113
:1008800022606360FFF70CFC00F050FF10BDC04613
:10089000F800002010B5FFF799FE184C1848211CED
:1008A0001E22FFF7A7FE237F211C012B01D000236E
:1008B00013E00023CA5C203A5E2AF8D80133082BE3
:1008C000F8D100231A1CC85C01331218D2B21D2BB8
:1008D000F9D14B7F9342EAD10EE00A4A9A5CCA549E
:1008E00001331D2BF9D100234B77C85C4A7F0133BC
:1008F00082184A771D2BF8D110BDC0468002002017
:10090000E21F00000400002008B5FFF76BFE08BDE1
:1009100008B5064800F0E6FF00F0A6FFFFF756FE18
:1009200001F03EFAFFF7B6FF08BDC04600093D00E2
:1009300008B501F03FFA08BD074810B5021C031CBA
:10094000011F083A0C3B01F089FA041E01D101F0A5
:1009500027F8201C10BDC0469602002008B501F003
:100960003BFAFFF7D1FF01F01BF808BD012008B5E5
:100970006C21021C01F060FA0120682101F03AFAB2
:100980000028F9D108BD08B501206C21102201F022
:1009900053FA0120682101F02DFA0028F9D108BD91
:1009A00010B5041CFFF7EFFF02206C21FF2201F0BD
:1009B00043FA00206C21022201F03EFA04206C214F
:1009C000221C01F09BFAFFF7D1FF0320682101F000
:1009D00011FA2228E6D110BD08B52620682101F0C1
:1009E0001BFA08BD08B50220682101F003FA0422B1
:1009F000104204D002206C2101F01EFAF3E708BD7A
:100A0000F8B5071C0D1C2420682101F005FA3C1CD8
:100A1000061CBAB2B01AA3B25219181892B280B218
:100A20009A4205D02278742101F006FA0134F0E7E9
:100A30007519AAB224206C2101F060FA01206C2102
:100A4000202201F0F9F90120682101F0D3F90028F2
:100A5000F9D1F8BDF8B5051C0E1C2820682101F05D
:100A6000DBF92C1C071CAAB2B81AA3B292191818E9
:100A700092B280B29A4205D0782101F0BBF9207081
:100A80000134F0E7BE19B2B228206C2101F036FA29
:100A900001206C21402201F0CFF90120682101F0F2
:100AA000A9F90028F9D1041C201C0C302A5D80B261
:100AB0006C21013401F0C0F9062CF5D1F8BD00001D
:100AC00010B5054B054C2360FFF76EFB201C216819
:100AD000FFF75CFB201C10BD00500041A00200206D
:100AE00070B5051CC0B0081C161C0C1C01F08EFA59
:100AF00040006A46032302305370107076080123C9
:100B0000E218013A11785A00002906D1281C6946DA
:100B10000023FFF7CDFB40B070BDB342F6DA684664
:100B200081520133ECE70000F7B5BA4A0468137844
:100B3000B949271CFF37051C102038720B705378F9
:100B4000B648B74E037093783380D1783388090262
:100B50000B4333801179B34B1980517918880902FE
:100B6000084318809079B0490880D2790888120229
:100B700002430A8040227A71A84F3A78A64F1202A7
:100B800038780F1C0243A9488446181C624500D1DE
:100B9000C2E020DC802149008A4200D16EE109DCFC
:100BA000812A00D192E0822A00D195E0802A00D0EB
:100BB00064E18BE081235B009A4200D1CFE000DA50
:100BC00058E1C0239B009A4200D157E1984B9A42CA
:100BD00000D14FE152E190231B019A4269D015DC0C
:100BE000D023DB009A4222D088231B019A4269D08D
:100BF000A023DB009A4200D040E1201CFFF7E8FB75
:100C00003188286889B2FFF7F7FB3BE1894B9A42AC
:100C100000D12FE100DC31E1874B9A4200D11DE188
:100C2000864B9A4200D029E133886B7122E13388E8
:100C30001B0A012B08D10B8812222868934201D885
:100C40000A8892B27E4911E133881B0A022B08D12F
:100C50000B8843222868934201D80A8892B27949C6
:100C600004E133881B0A032B00D007E13388DBB291
:100C7000012B17D0002B07D0022B00D0FEE00A88F2
:100C80002868D2B2704911E0042201A86F4901F02E
:100C9000ACF93B8804222868934201D83A8892B282
:100CA00001A9E3E00A8828686949D2B2FFF718FF72
:100CB000E8E03388201C2B71FFF78AFB201CFFF72C
:100CC000A1FBDFE0291C01C90122CFE0614900231B
:100CD0000B8028680222CAE05E4900220A80188838
:100CE000502210405C4A10701E880F20304018803F
:100CF0001888032800D9C1E012781B8808335B01EB
:100D0000E418A379002A01D09B0600E0DB06DB0F84
:100D10000B8028680222A9E019887F2291434E4A5D
:100D2000C9B2117018880F2101401980318800293B
:100D300000D0A3E01988002900D19FE01988032979
:100D400000D99BE012781B8808335B01E318002A66
:100D500002D020225A718DE0102159718AE0028858
:100D60007F239A433C4BD2B21A7001880F220A406B
:100D700002803288002A00D080E00288002A00D158
:100D80007CE00288032A00D978E01B78002B1FD072
:100D9000038808335B01E3189B799A066AD50388B8
:100DA000202208335B01E3181A71038808335B01C2
:100DB000E318DB795F065DD50388402208335B01C9
:100DC000E318DA710388022208335B01E3181EE09E
:100DD000038808335B01E3189B79D9064AD5038859
:100DE000102208335B01E3181A71038808335B0192
:100DF000E318DB799A063DD50388202208335B018E
:100E0000E318DA710388012208335B01E3181A71D1
:100E100030E0C04600010020CA000020D0000020C1
:100E2000D2000020D4000020CE00002002030000E9
:100E30000103000021200000A12100002122000068
:100E4000582000002400002045200000342000002D
:100E500038200000CC000020C90000200B880822A8
:100E60002868934201D80A8892B207490023FFF705
:100E70001FFA07E0201CFFF7ABFA03E0201C01215A
:100E8000FFF79CFAF7BDC0466800002007B5054B88
:100E90000122019001A91868131CFFF709FA01202B
:100EA0000EBDC046A002002013B5054B6C460734AA
:100EB0001868211C0122FFF743FA207816BDC046AE
:100EC000A002002010B5074C201CFFF71DF9031CE1
:100ED0000020834205D022684823FF33D05C0123E1
:100EE000184010BDA002002010B5054A0C1C031CC0
:100EF000191C10680123221CFFF7DAF9201C10BD11
:100F0000A002002070B5084C061C201C0D1CFFF729
:100F1000FBF80023984205D02068311C2A1CFFF7FB
:100F20000FFA031C181C70BDA0020020F8B50C4C71
:100F3000051C201C0E1CFFF7E7F80023271C341C9F
:100F400098420AD0002C07D0291C221C3868FFF7D1
:100F5000F7F9241A2D18F5E7331C181CF8BDC04604
:100F6000A0020020094B30B51968094B1C68A40089
:100F7000884209D2074B4208DA61074A1A801A7D73
:100F8000D507FCD50019F3E730BDC046C0020020EC
:100F9000CC0200200040004102A5FFFF70B5124CBA
:100FA00080256368AB436360002A1CD00F4B23800D
:100FB000237DDD07FCD500230D4D2D68AD08AB4228
:100FC00002D30C4D258006E09342FAD09D0046598D
:100FD00001334E51F0E7257DEE07FCD59D00491900
:100FE0004019D21AE0E770BD0040004144A5FFFF60
:100FF000CC02002004A5FFFF08B5031C081C111C2F
:101000009847044B802252035A61034B64221A8092
:1010100008BDC04600440041E8000020F0B589B09A
:1010200000AF00F045FE041C786100D1E9E0002526
:10103000A84200DAC8E000F0CFFD022800D0C3E0EB
:10104000724D2B78002B14D0381C1830082100F07A
:101050005BFD002818D0381C18306D49082200F0BC
:10106000B5FF002803D12870210602D5ABE0FB2490
:10107000A9E0684E3378002B1DD0381C18300121B0
:1010800000F042FD002801D1FC249CE03B7E624D33
:10109000381C1B02183001212B8000F035FD002880
:1010A000F2D03A7E2B8813437A692B800023337069
:1010B000120600D587E0594B69461B68F960073373
:1010C000DB08DB00CA1A9546694639610025544E93
:1010D0003869318800F046FD524A002812D0156860
:1010E0003869291C3268FFF759FF33684B4A9B0067
:1010F000ED184C4B12681D604B4B012519685218B6
:101100001A60E4E71268494BBA60D21A484B921051
:101110001B689A4251D279694BB2022B50D100F030
:10112000EBFC8608B6B2002E2CD0311C386900F0DA
:1011300019FD3D4BB600196872181A60374BB6B2EC
:101140001B689E4205D23969FF228A550136B6B224
:10115000F7E7344A324B15681B68291C1A1C38699A
:101160007B60FFF71BFF2E492E4A0B689B00ED1892
:101170002E4B1560ED1A2E4BAD101B689D4200D30F
:10118000FD24012500F0B8FC002818D1224B061CD4
:101190001B88011C3B61244B1B687B617A6996426A
:1011A00006D0224B985D00F053FB0136011CF5E799
:1011B0003B698B4204D0FA2402E0FD2400E0FC24C9
:1011C000F9688D4600E0002564B2201C00F00AFD9D
:1011D000002817D100F0F4FC002C0FDA114B134853
:1011E0001B68834201D0FFF7BDFEBFF34F8F114A4A
:1011F000114BDA60BFF34F8FC046FDE700F080FD72
:10120000FEE77D69281CBD4609B0F0BD70000020D6
:101210008002002071000020EA000020CC020020A3
:10122000B0020020DC000020D800002000400000B8
:10123000C00200200400FA0500ED00E0002805D1FE
:10124000054B064A1870064B1A6003E0042801D1CA
:10125000014B18707047C04672000020BC2000008F
:101260001403002030B50A1C1C4985B00978031C02
:1012700000292AD0042A01D1006804E0022A01D101
:10128000008800E00078520004A98B180B3B9C1AE0
:10129000A3420BD00F210140092902D83025294350
:1012A00000E0373119700009013BF1E701A9302353
:1012B0000B7078234B700A208B1898700D20D87013
:1012C000074B04321B68D86803E005490968C86801
:1012D000191CFFF791FE05B030BDC046E4000020A8
:1012E0001403002072B6EFF30883044A1360036806
:1012F00083F30888436818477047C04618030020E6
:10130000F0B5D04CD04D236887B01B69281C402114
:101310009847002806D0CD4B802252035A61CC4B0F
:1013200064221A80CB4B00221860CB4B1D60431EF9
:101330009841C0B2C94B0390C84DC64F1A602A6885
:101340003B689A4200D3E3E1C34E30680278FF2A3B
:1013500000D1D5E1232A00D0AEE1C1490B78002BA2
:1013600005D02368BF49D8680222FFF745FEBE4B6F
:101370001B78532B3FD13B682A6893421BD901321B
:101380002A609A1AB94B31681B6801313160B84F35
:101390009A4201D23A6000E03B60B64B3A68186866
:1013A00000F023FE3B68286831681A182A60CA18C2
:1013B0003260B14A1370A94AA8481268131C013B55
:1013C00003603368A94A013B3360AB4B11681B785B
:1013D0008B420ED22268A748C91A006892699047CA
:1013E000002806D0994B802252035A61984B642200
:1013F0001A80C04614E1522B0DD19E4A2368106812
:101400009A4A5B6911689847904B802252035A614F
:1014100064229A4B0DE04F2B05D1964B934A1B68E3
:1014200012681A70FCE0482B05D1924B8F4A1B685A
:1014300012681A80F4E0572B05D18E4B8B4A1B683B
:1014400012681A60ECE06F2B03D18A4B01211868F7
:1014500007E0682B08D1874B84481B6802211B8852
:101460000360FFF7FFFEDBE0772B06D1814B7F485F
:101470001B6804211B680360F3E7472B12D17B4BE9
:101480001868FFF72FFF7E4B1B6883F3088862B64E
:101490007C4B1B78002B00D1C2E0236806201B6820
:1014A0009847BDE0542B03D16D4901230B7064E0D4
:1014B0004E2B0DD16A4A1378002B05D12368694958
:1014C000D8680222FFF798FD654800230370A7E063
:1014D000562B57D123686C49D8680122FFF78CFD41
:1014E00023686A49D8680322FFF786FD684E23689F
:1014F000311CD8680122FFF77FFD23686549D86851
:101500000D22FFF779FD2368311CD8680122FFF70F
:1015100073FD514E6049002331602B60321C13680B
:10152000581C10601F78002F06D04C4B4B481B688E
:10153000019301330360F2E723682A68D868FFF754
:101540005BFD23685249D8680122FFF755FD5349D6
:101550002F603160404A1368581C10601B78002BC4
:1015600004D03E4B1A6801321A60F3E73B4A236805
:101570001268D8680092FFF73FFD23683949D868A0
:1015800002224BE0394A582B06D11068FFF7EAFCDB
:1015900023684349D86840E0592B10D11268354B75
:1015A0004049002A02D11B680B6004E008689208D9
:1015B0001968FFF7F3FC23683B49D8682DE05A2BE4
:1015C0002ED12C4B17681D680026EF19BD4206D09E
:1015D0002878311C00F03CF90135061CF6E7236839
:1015E0003249D8680122FFF707FD07230F22324056
:1015F000111C36093031092A00DD07311020C018CE
:101600006A468154013BF1D2236804A9D8680822B4
:10161000FFF7F2FC23682649D8680322FFF7ECFCA9
:10162000114B7A221A70114B00221A600C4B1B7856
:10163000934265D023681F49D8680122FFF7DCFC7C
:101640005EE0C04614030020D002002000440041A8
:10165000E6000020B4020020B8020020C8020020EA
:10166000E4000020B4200000BC0200201C03002085
:101670002003002010030020AC020020E80000201E
:1016800018030020EC000020902000008C200000B7
:1016900092200000D820000094200000A02000002C
:1016A000A9200000E0000020AD200000B1200000D3
:1016B000B3200000B7200000111C3039C8B2164B0F
:1016C000092804D8186802011143196018E0111C98
:1016D0004139052901D8373A04E0111C613905293F
:1016E00004D8573A186801010A4308E02C2A03D1AC
:1016F0000A4A1968116001E009490A7000221A605B
:10170000084B1A6801321A60074B1A68013213E657
:10171000039807B0F0BDC0461C0300201003002052
:10172000BC020020C8020020B80200200E4B1A881C
:10173000002A09D01A88013A92B21A80002A03D1ED
:1017400080220A4B52039A61094B1A88002A09D059
:101750001A88013A92B21A80002A03D18022034BE0
:1017600052039A617047C046E800002000440041DF
:10177000E600002000000000F0B589B0061C00F073
:10178000A3FA244B224A041C0D1CA4185D41224AD2
:101790006B4683CA83C383CA83C303CA03C31F4A76
:1017A0006F4693681E495B035B0F9B00DB590B6020
:1017B0001C499808086092681B4992B253430A601A
:1017C0001A4900220B601A4B1A601A4B7A221A70BF
:1017D000194B1B78042B06D11848194B1860FFF7DA
:1017E000C1FB184F03E0184F01E0002E04D1B847A9
:1017F0000028FAD00026FAE700F066FAA94202D8DB
:10180000F5D1A042F3D900F07BFAF0E7C046C0461C
:1018100080200500000000006C2000000040004116
:10182000CC020020B0020020C4020020C002002030
:1018300010030020BC0200207200002000400000C5
:10184000DC0000201D10000001130000C046C0464F
:101850000B0A5840034B4000C05A0902484080B26E
:101860007047C046E6200000044A8023111C5B003C
:10187000983188320B6013607047C04600440041C5
:10188000074B01211A680A431A60196801221142A4
:10189000FBD10349C9690A40F7D1024B1A7070475E
:1018A000001C0042ED00002070B50D4DC0014C0839
:1018B00040190419303401232678194205D0150146
:1018C0000F2232402A43D2B203E00F252A40AE4312
:1018D00032434118227040310A7813430B7070BDB7
:1018E0000044004170B5264E3378002B46D1254B7D
:1018F000051E9D4200D91D1C012016210322FFF761
:10190000D3FF214C002017210322FFF7CDFF032234
:1019100001201721FFF7C8FF2368022293432360A9
:10192000E3699A07FCD4FFF7ABFF184B80211A6AD2
:101930000A431A62164B174A5A805A7852B2002A42
:10194000FBDB154B6900236080239B0263602368E7
:101950001248236000F0EAFA0138C0B2207323680D
:10196000022213432360E3699A07FCD4E3695A0710
:10197000FCD463689A03FCD50123337070BDC04664
:10198000ED000020001BB700001C004200040040D6
:10199000000C0040194000000C002200006CDC022A
:1019A00008B5FFF76DFF08BD064B9A6A520A52024E
:1019B000104398621A7E5107FCD5024B986AC0B258
:1019C0007047C046001C004270B5061C000AFFF7B5
:1019D000EBFFFF25341C2C4000020443E0B2FFF76C
:1019E000E3FFAC43204380B270BD0000F0B53B4C38
:1019F000C820A544400003ACFEF7F4FF8321201C5F
:101A00008900FFF727F8207A657A0002281880B24B
:101A10000138A179E679A27AE37A04284DD800F05A
:101A20007BFA03051342470001223DE02C4B0222C2
:101A30001A702C4B1889FEF7B3FF2B4A0023138032
:101A40002A4A0120138042E00902043E7618284801
:101A5000B6B2264912029B18B04280410B80404228
:101A600002230096181A0021009A8BB293422ED2BC
:101A700063181B7B812501931E4BED005F5B802269
:101A8000D200974222D09F587E1C9E50019E8022F9
:101A90003E705F5BD20001379E585F539D18AE4287
:101AA0001AD19B5018E000220D4BFE201A700EE058
:101AB0000B4B00221A70FF2009E0094B00241C7018
:101AC000084B1889FEF76CFF201C00E0FD2040B297
:101AD00087239B009D44F0BD0131C5E7E4FDFFFF76
:101AE000EE00002080020020F2000020F000002024
:101AF000FF01000024030020024A8123DB00D05AAA
:101B00007047C0462403002070B5134B8122D200D9
:101B10009C5A00228C421CD30139104A89B291424E
:101B200016D08124E4001A5B002A0FD00C4A9D587D
:101B30006E1C9E502D7805701D5B013D1D53802548
:101B4000ED005C199D58A54200D19B500130E3E7A0
:101B50000122101C70BDC04624030020FFFF0000BE
:101B60000404000008B5890089B2FFF7CDFF08BD65
:101B700008B5FEF7CDFE08BD08B5FEF7D9FE08BDD5
:101B800038B5FEF7D9FE041E0FD00A4B00254520BC
:101B90001D70FEF705FF084B8122D2009D52074AB7
:101BA0009B508022D2009B5001E0FEF7D7FE201C04
:101BB00038BDC046EE0000202403002004040000CD
:101BC00008B5FEF7E0FE034B00221A70FEF7C6FED2
:101BD00008BDC046EE000020014B18787047C04693
:101BE000EE00002030B5051C9BB0002801D101207B
:101BF00056E0063001AC082806D800F08DF92C24F8
:101C00001C140C0505343B002649201C0A2200F058
:101C1000ECF90A213AE02349201C0A31122200F093
:101C2000E4F9122132E01F49201C1C31092200F086
:101C3000DCF909212AE01B49201C25310E2200F085
:101C4000D4F90E2122E01749201C3331132200F071
:101C5000CCF913211AE01349201C4631102200F060
:101C6000C4F9102112E0104B1A88104B19889142C8
:101C700000D21A800023237004216B4659710A4B4D
:101C80006A461B88180A90716A46D371201CFEF7B9
:101C9000B7FE022D01D0002DA9DAFEF774FE002058
:101CA0001BB030BDE6220000F0000020F200002052
:101CB00008B5FEF791FE031C0020834201D0FFF718
:101CC00095FE40B208BD0000014B18685968704786
:101CD000F800002030210A1C424370B50023074E53
:101CE000101C191C346875680019694132687368E2
:101CF0009942FBD801D19042F8D870BDF80000207D
:101D0000054A064B1A60BFF34F8F054A054BDA6050
:101D1000BFF34F8FC046FDE769363163FC7F00207B
:101D20000400FA0500ED00E0064B1B6883F3088809
:101D3000044BFF22191C9143034A91605B681847CA
:101D40007047C0460040000000ED00E000000000C9
:101D500038B5114C8025ED00A56002206561FFF7C4
:101D6000B9FFA5610120FFF7B5FF65610220FFF70C
:101D7000B1FFFFF7A9FF021CC31706490448121858
:101D80004B4106490A604B6038BDC046C046C0465C
:101D90000077010000000000004400419000002096
:101DA00008B5034B80229A60FFF7D2FF08BDC046FA
:101DB0000044004110B5FFF787FF064AC117546879
:101DC00001238C4204D302D11268824200D3002343
:101DD000D8B210BD90000020044B802204495A6004
:101DE00001225242D3170A604B6070470044004101
:101DF0009000002070B5074C80250E1C6561FFF730
:101E0000E3FD301CFFF7D0FD0020FFF7CDFDA561FD
:101E100070BDC0460044004170B50C1C051CFFF7A6
:101E2000E9FF0135061C211CA8B2FFF7E3FF3602CB
:101E3000304380B270BD0000F8B5074C80250F1C00
:101E40006561161CFFF7C0FD381CFFF7ADFD301CA7
:101E5000FFF7AAFDA561F8BD00440041F7B5254C88
:101E6000802501930092061C656100200F1CFFF77E
:101E70009BFD3920FFF798FD0020FFF795FD00201E
:101E8000FFF792FDA561031C0020042B31D11A4CF1
:101E90003A5C23180099DA730A5C01995A710A5C5A
:101EA00001305A700428F2D10023F15CE2180133AA
:101EB0005172062BF9D100235D1CE3185A78A8B2A1
:101EC0000421FFF7B9FF2B1E1B2BF5D10024650160
:101ED0000C35EDB21E20291C02220134FFF7ACFFA5
:101EE000E4B21F20291C0222FFF7A6FF082CEED126
:101EF0000120FEBD004400417300002070B5061CA7
:101F0000151C0C1C0136120AFFF796FFB0B2EAB29C
:101F1000211CFFF791FF70BD02B4714649084900CA
:101F2000095C49008E4402BC7047C046002934D089
:101F30000123002210B488422CD301242407A1429B
:101F400004D2814202D209011B01F8E7E400A14258
:101F500004D2814202D249005B00F8E7884201D3F3
:101F6000401A1A434C08A04202D3001B5C082243CB
:101F70008C08A04202D3001B9C082243CC08A0423C
:101F800002D3001BDC082243002803D01B0901D028
:101F90000909E3E7101C10BC7047002801D000209D
:101FA000C04307B4024802A14018029003BDC046D6
:101FB000190000000029F0D003B5FFF7B9FF0EBCEF
:101FC0004243891A1847C0467047C04630B50023BF
:101FD000934208D0C55C0133CC18013C2478A5425B
:101FE000F6D0281B00E0002030BD10B5002393423E
:101FF00003D0CC5CC4540133F9E710BD031C821834
:10200000934202D019700133FAE770470023C25C93
:102010000133002AFBD1581E70470000F8B5C046B6
:10202000F8BC08BC9E467047F8B5C046F8BC08BC72
:102030009E4670470403090445532047656172209A
:102040004C74642E00496E647573747275696E6F9A
:10205000204432314700000012010002020000401B
:10206000782E4D000002010200010000080000006F
:102070001000000020000000400000008000000070
:10208000000100000002000000040000322E3000B9
:10209000760020004A756E20323220323032300015
:1020A00031383A30313A313600580A0D00590A0DAC
:1020B000005A00230A0D003E000000008D0E0000B3
:1020C000A90E0000C50E0000E90E0000050F00007B
:1020D000E90E00002D0F00005B41726475696E6FA0
:1020E0003A58595A5D000000211042206330844064
:1020F000A550C660E770088129914AA16BB18CC1D7
:10210000ADD1CEE1EFF13112100273325222B5524D
:102110009442F772D662399318837BB35AA3BDD326
:102120009CC3FFF3DEE36224433420040114E6641D
:10213000C774A44485546AA54BB528850995EEE576
:10214000CFF5ACC58DD55336722611163006D7762D
:10215000F6669556B4465BB77AA719973887DFF7C6
:10216000FEE79DD7BCC7C448E5588668A7784008F5
:10217000611802282338CCC9EDD98EE9AFF9488916
:1021800069990AA92BB9F55AD44AB77A966A711A8D
:10219000500A333A122AFDDBDCCBBFFB9EEB799B66
:1021A000588B3BBB1AABA66C877CE44CC55C222CDD
:1021B000033C600C411CAEED8FFDECCDCDDD2AADB6
:1021C0000BBD688D499D977EB66ED55EF44E133E6D
:1021D000322E511E700E9FFFBEEFDDDFFCCF1BBF06
:1021E0003AAF599F788F8891A981CAB1EBA10CD1E0
:1021F0002DC14EF16FE18010A100C230E3200450E8
:10220000254046706760B9839893FBA3DAB33DC35A
:102210001CD37FE35EF3B1029012F322D232354237
:10222000145277625672EAB5CBA5A89589856EF5EA
:102230004FE52CD50DC5E234C324A0148104667487
:10224000476424540544DBA7FAB79987B8975FE73A
:102250007EF71DC73CD7D326F2369106B0165766D7
:102260007676154634564CD96DC90EF92FE9C899C2
:10227000E9898AB9ABA94458654806782768C01827
:10228000E1088238A3287DCB5CDB3FEB1EFBF98B9A
:10229000D89BBBAB9ABB754A545A376A167AF10A77
:1022A000D01AB32A923A2EFD0FED6CDD4DCDAABDAA
:1022B0008BADE89DC98D267C076C645C454CA23CC7
:1022C000832CE01CC10C1FEF3EFF5DCF7CDF9BAF7A
:1022D000BABFD98FF89F176E367E554E745E932E17
:1022E000B23ED10EF01E000500004572726F720002
:1022F000000500044E6F7420737570706F72746502
:1023000064000005000346756C6C00000500004287
:10231000616420696D6167650000050002417574A4
:1023200068656E7469636174696F6E000005000012
:10233000496D61676520636865636B00000000009C
:1023400001140100202020202020202079B7C0A8DF
:102350000001FFFFFF00C0A800C8DEADBEEFFEED2C
:10236000010000000902430002010080320904005C
:1023700000010202000005240010010424020005EF
:10238000240600010524010001070583030800FF5E
:1023900009040100020A0000000705810240000054
:1023A000070502024000000000C201000000080012
:1023B0000101FF000000000000000000000000001C
:1023C00000000000000000000000000007D008002E
:1023D000FFFFFFFFFFFFFFFF69000000410000005B
:0823E0000000000000000000F5
:040000030000057D77
:00000001FF
